{
  "_format": "hh-sol-artifact-1",
  "contractName": "EventNft",
  "sourceName": "contracts/eventNft.sol",
  "abi": [
    {
      "inputs": [
        {
          "internalType": "uint256",
          "name": "_maxTotalTickets",
          "type": "uint256"
        }
      ],
      "stateMutability": "nonpayable",
      "type": "constructor"
    },
    {
      "inputs": [
        {
          "internalType": "address",
          "name": "sender",
          "type": "address"
        },
        {
          "internalType": "uint256",
          "name": "tokenId",
          "type": "uint256"
        },
        {
          "internalType": "address",
          "name": "owner",
          "type": "address"
        }
      ],
      "name": "ERC721IncorrectOwner",
      "type": "error"
    },
    {
      "inputs": [
        {
          "internalType": "address",
          "name": "operator",
          "type": "address"
        },
        {
          "internalType": "uint256",
          "name": "tokenId",
          "type": "uint256"
        }
      ],
      "name": "ERC721InsufficientApproval",
      "type": "error"
    },
    {
      "inputs": [
        {
          "internalType": "address",
          "name": "approver",
          "type": "address"
        }
      ],
      "name": "ERC721InvalidApprover",
      "type": "error"
    },
    {
      "inputs": [
        {
          "internalType": "address",
          "name": "operator",
          "type": "address"
        }
      ],
      "name": "ERC721InvalidOperator",
      "type": "error"
    },
    {
      "inputs": [
        {
          "internalType": "address",
          "name": "owner",
          "type": "address"
        }
      ],
      "name": "ERC721InvalidOwner",
      "type": "error"
    },
    {
      "inputs": [
        {
          "internalType": "address",
          "name": "receiver",
          "type": "address"
        }
      ],
      "name": "ERC721InvalidReceiver",
      "type": "error"
    },
    {
      "inputs": [
        {
          "internalType": "address",
          "name": "sender",
          "type": "address"
        }
      ],
      "name": "ERC721InvalidSender",
      "type": "error"
    },
    {
      "inputs": [
        {
          "internalType": "uint256",
          "name": "tokenId",
          "type": "uint256"
        }
      ],
      "name": "ERC721NonexistentToken",
      "type": "error"
    },
    {
      "inputs": [
        {
          "internalType": "address",
          "name": "owner",
          "type": "address"
        }
      ],
      "name": "OwnableInvalidOwner",
      "type": "error"
    },
    {
      "inputs": [
        {
          "internalType": "address",
          "name": "account",
          "type": "address"
        }
      ],
      "name": "OwnableUnauthorizedAccount",
      "type": "error"
    },
    {
      "anonymous": false,
      "inputs": [
        {
          "indexed": true,
          "internalType": "address",
          "name": "owner",
          "type": "address"
        },
        {
          "indexed": true,
          "internalType": "address",
          "name": "approved",
          "type": "address"
        },
        {
          "indexed": true,
          "internalType": "uint256",
          "name": "tokenId",
          "type": "uint256"
        }
      ],
      "name": "Approval",
      "type": "event"
    },
    {
      "anonymous": false,
      "inputs": [
        {
          "indexed": true,
          "internalType": "address",
          "name": "owner",
          "type": "address"
        },
        {
          "indexed": true,
          "internalType": "address",
          "name": "operator",
          "type": "address"
        },
        {
          "indexed": false,
          "internalType": "bool",
          "name": "approved",
          "type": "bool"
        }
      ],
      "name": "ApprovalForAll",
      "type": "event"
    },
    {
      "anonymous": false,
      "inputs": [
        {
          "indexed": false,
          "internalType": "uint256",
          "name": "_fromTokenId",
          "type": "uint256"
        },
        {
          "indexed": false,
          "internalType": "uint256",
          "name": "_toTokenId",
          "type": "uint256"
        }
      ],
      "name": "BatchMetadataUpdate",
      "type": "event"
    },
    {
      "anonymous": false,
      "inputs": [
        {
          "indexed": false,
          "internalType": "uint256",
          "name": "_tokenId",
          "type": "uint256"
        }
      ],
      "name": "MetadataUpdate",
      "type": "event"
    },
    {
      "anonymous": false,
      "inputs": [
        {
          "indexed": true,
          "internalType": "address",
          "name": "previousOwner",
          "type": "address"
        },
        {
          "indexed": true,
          "internalType": "address",
          "name": "newOwner",
          "type": "address"
        }
      ],
      "name": "OwnershipTransferred",
      "type": "event"
    },
    {
      "anonymous": false,
      "inputs": [
        {
          "indexed": true,
          "internalType": "address",
          "name": "from",
          "type": "address"
        },
        {
          "indexed": true,
          "internalType": "address",
          "name": "to",
          "type": "address"
        },
        {
          "indexed": true,
          "internalType": "uint256",
          "name": "tokenId",
          "type": "uint256"
        }
      ],
      "name": "Transfer",
      "type": "event"
    },
    {
      "inputs": [
        {
          "internalType": "address",
          "name": "to",
          "type": "address"
        },
        {
          "internalType": "uint256",
          "name": "tokenId",
          "type": "uint256"
        }
      ],
      "name": "approve",
      "outputs": [],
      "stateMutability": "nonpayable",
      "type": "function"
    },
    {
      "inputs": [
        {
          "internalType": "address",
          "name": "owner",
          "type": "address"
        }
      ],
      "name": "balanceOf",
      "outputs": [
        {
          "internalType": "uint256",
          "name": "",
          "type": "uint256"
        }
      ],
      "stateMutability": "view",
      "type": "function"
    },
    {
      "inputs": [
        {
          "internalType": "uint256",
          "name": "tokenId",
          "type": "uint256"
        }
      ],
      "name": "burn",
      "outputs": [],
      "stateMutability": "nonpayable",
      "type": "function"
    },
    {
      "inputs": [
        {
          "internalType": "uint256",
          "name": "ticketTypeId",
          "type": "uint256"
        }
      ],
      "name": "burnTicket",
      "outputs": [],
      "stateMutability": "nonpayable",
      "type": "function"
    },
    {
      "inputs": [
        {
          "internalType": "uint256",
          "name": "tokenId",
          "type": "uint256"
        }
      ],
      "name": "getApproved",
      "outputs": [
        {
          "internalType": "address",
          "name": "",
          "type": "address"
        }
      ],
      "stateMutability": "view",
      "type": "function"
    },
    {
      "inputs": [
        {
          "internalType": "address",
          "name": "owner",
          "type": "address"
        },
        {
          "internalType": "address",
          "name": "operator",
          "type": "address"
        }
      ],
      "name": "isApprovedForAll",
      "outputs": [
        {
          "internalType": "bool",
          "name": "",
          "type": "bool"
        }
      ],
      "stateMutability": "view",
      "type": "function"
    },
    {
      "inputs": [
        {
          "internalType": "uint256",
          "name": "ticketTypeId",
          "type": "uint256"
        }
      ],
      "name": "mintTicket",
      "outputs": [],
      "stateMutability": "payable",
      "type": "function"
    },
    {
      "inputs": [],
      "name": "name",
      "outputs": [
        {
          "internalType": "string",
          "name": "",
          "type": "string"
        }
      ],
      "stateMutability": "view",
      "type": "function"
    },
    {
      "inputs": [],
      "name": "owner",
      "outputs": [
        {
          "internalType": "address",
          "name": "",
          "type": "address"
        }
      ],
      "stateMutability": "view",
      "type": "function"
    },
    {
      "inputs": [
        {
          "internalType": "uint256",
          "name": "tokenId",
          "type": "uint256"
        }
      ],
      "name": "ownerOf",
      "outputs": [
        {
          "internalType": "address",
          "name": "",
          "type": "address"
        }
      ],
      "stateMutability": "view",
      "type": "function"
    },
    {
      "inputs": [],
      "name": "renounceOwnership",
      "outputs": [],
      "stateMutability": "nonpayable",
      "type": "function"
    },
    {
      "inputs": [
        {
          "internalType": "address",
          "name": "from",
          "type": "address"
        },
        {
          "internalType": "address",
          "name": "to",
          "type": "address"
        },
        {
          "internalType": "uint256",
          "name": "tokenId",
          "type": "uint256"
        }
      ],
      "name": "safeTransferFrom",
      "outputs": [],
      "stateMutability": "nonpayable",
      "type": "function"
    },
    {
      "inputs": [
        {
          "internalType": "address",
          "name": "from",
          "type": "address"
        },
        {
          "internalType": "address",
          "name": "to",
          "type": "address"
        },
        {
          "internalType": "uint256",
          "name": "tokenId",
          "type": "uint256"
        },
        {
          "internalType": "bytes",
          "name": "data",
          "type": "bytes"
        }
      ],
      "name": "safeTransferFrom",
      "outputs": [],
      "stateMutability": "nonpayable",
      "type": "function"
    },
    {
      "inputs": [
        {
          "internalType": "address",
          "name": "operator",
          "type": "address"
        },
        {
          "internalType": "bool",
          "name": "approved",
          "type": "bool"
        }
      ],
      "name": "setApprovalForAll",
      "outputs": [],
      "stateMutability": "nonpayable",
      "type": "function"
    },
    {
      "inputs": [
        {
          "internalType": "bytes4",
          "name": "interfaceId",
          "type": "bytes4"
        }
      ],
      "name": "supportsInterface",
      "outputs": [
        {
          "internalType": "bool",
          "name": "",
          "type": "bool"
        }
      ],
      "stateMutability": "view",
      "type": "function"
    },
    {
      "inputs": [],
      "name": "symbol",
      "outputs": [
        {
          "internalType": "string",
          "name": "",
          "type": "string"
        }
      ],
      "stateMutability": "view",
      "type": "function"
    },
    {
      "inputs": [
        {
          "internalType": "uint256",
          "name": "",
          "type": "uint256"
        }
      ],
      "name": "ticketTypes",
      "outputs": [
        {
          "internalType": "string",
          "name": "name",
          "type": "string"
        },
        {
          "internalType": "uint256",
          "name": "capacity",
          "type": "uint256"
        },
        {
          "internalType": "uint256",
          "name": "ticketPrice",
          "type": "uint256"
        },
        {
          "internalType": "bool",
          "name": "isGeneralAdmission",
          "type": "bool"
        }
      ],
      "stateMutability": "view",
      "type": "function"
    },
    {
      "inputs": [],
      "name": "toggleSaleState",
      "outputs": [],
      "stateMutability": "nonpayable",
      "type": "function"
    },
    {
      "inputs": [
        {
          "internalType": "uint256",
          "name": "tokenId",
          "type": "uint256"
        }
      ],
      "name": "tokenURI",
      "outputs": [
        {
          "internalType": "string",
          "name": "",
          "type": "string"
        }
      ],
      "stateMutability": "view",
      "type": "function"
    },
    {
      "inputs": [
        {
          "internalType": "address",
          "name": "from",
          "type": "address"
        },
        {
          "internalType": "address",
          "name": "to",
          "type": "address"
        },
        {
          "internalType": "uint256",
          "name": "tokenId",
          "type": "uint256"
        }
      ],
      "name": "transferFrom",
      "outputs": [],
      "stateMutability": "nonpayable",
      "type": "function"
    },
    {
      "inputs": [
        {
          "internalType": "address",
          "name": "newOwner",
          "type": "address"
        }
      ],
      "name": "transferOwnership",
      "outputs": [],
      "stateMutability": "nonpayable",
      "type": "function"
    },
    {
      "inputs": [
        {
          "internalType": "address",
          "name": "",
          "type": "address"
        },
        {
          "internalType": "uint256",
          "name": "",
          "type": "uint256"
        }
      ],
      "name": "userTickets",
      "outputs": [
        {
          "internalType": "uint256",
          "name": "",
          "type": "uint256"
        }
      ],
      "stateMutability": "view",
      "type": "function"
    },
    {
      "inputs": [],
      "name": "withdrawFunds",
      "outputs": [],
      "stateMutability": "nonpayable",
      "type": "function"
    },
    {
      "stateMutability": "payable",
      "type": "receive"
    }
  ],
  "bytecode": "0x60806040523480156200001157600080fd5b50604051620031033803806200310383398181016040528101906200003791906200026d565b336040518060400160405280600881526020017f6576656e744e46540000000000000000000000000000000000000000000000008152506040518060400160405280600381526020017f454e5400000000000000000000000000000000000000000000000000000000008152508160009081620000b591906200050f565b508060019081620000c791906200050f565b505050600073ffffffffffffffffffffffffffffffffffffffff168173ffffffffffffffffffffffffffffffffffffffff16036200013f5760006040517f1e4fbdf70000000000000000000000000000000000000000000000000000000081526004016200013691906200063b565b60405180910390fd5b62000150816200016760201b60201c565b508060098190555060016008819055505062000658565b6000600760009054906101000a900473ffffffffffffffffffffffffffffffffffffffff16905081600760006101000a81548173ffffffffffffffffffffffffffffffffffffffff021916908373ffffffffffffffffffffffffffffffffffffffff1602179055508173ffffffffffffffffffffffffffffffffffffffff168173ffffffffffffffffffffffffffffffffffffffff167f8be0079c531659141344cd1fd0a4f28419497f9722a3daafe3b4186f6b6457e060405160405180910390a35050565b600080fd5b6000819050919050565b620002478162000232565b81146200025357600080fd5b50565b60008151905062000267816200023c565b92915050565b6000602082840312156200028657620002856200022d565b5b6000620002968482850162000256565b91505092915050565b600081519050919050565b7f4e487b7100000000000000000000000000000000000000000000000000000000600052604160045260246000fd5b7f4e487b7100000000000000000000000000000000000000000000000000000000600052602260045260246000fd5b600060028204905060018216806200032157607f821691505b602082108103620003375762000336620002d9565b5b50919050565b60008190508160005260206000209050919050565b60006020601f8301049050919050565b600082821b905092915050565b600060088302620003a17fffffffffffffffffffffffffffffffffffffffffffffffffffffffffffffffff8262000362565b620003ad868362000362565b95508019841693508086168417925050509392505050565b6000819050919050565b6000620003f0620003ea620003e48462000232565b620003c5565b62000232565b9050919050565b6000819050919050565b6200040c83620003cf565b620004246200041b82620003f7565b8484546200036f565b825550505050565b600090565b6200043b6200042c565b6200044881848462000401565b505050565b5b8181101562000470576200046460008262000431565b6001810190506200044e565b5050565b601f821115620004bf5762000489816200033d565b620004948462000352565b81016020851015620004a4578190505b620004bc620004b38562000352565b8301826200044d565b50505b505050565b600082821c905092915050565b6000620004e460001984600802620004c4565b1980831691505092915050565b6000620004ff8383620004d1565b9150826002028217905092915050565b6200051a826200029f565b67ffffffffffffffff811115620005365762000535620002aa565b5b62000542825462000308565b6200054f82828562000474565b600060209050601f83116001811462000587576000841562000572578287015190505b6200057e8582620004f1565b865550620005ee565b601f19841662000597866200033d565b60005b82811015620005c1578489015182556001820191506020850194506020810190506200059a565b86831015620005e15784890151620005dd601f891682620004d1565b8355505b6001600288020188555050505b505050505050565b600073ffffffffffffffffffffffffffffffffffffffff82169050919050565b60006200062382620005f6565b9050919050565b620006358162000616565b82525050565b60006020820190506200065260008301846200062a565b92915050565b612a9b80620006686000396000f3fe6080604052600436106101445760003560e01c8063715018a6116100b6578063c87b56dd1161006f578063c87b56dd1461042e578063cf260baf1461046b578063daaeec86146104a8578063e985e9c5146104bf578063e9dbebce146104fc578063f2fde38b1461053c5761014b565b8063715018a6146103465780638da5cb5b1461035d57806395d89b4114610388578063a22cb465146103b3578063a476b73d146103dc578063b88d4fde146104055761014b565b806324600fc31161010857806324600fc314610247578063256d52f61461025e57806342842e0e1461027a57806342966c68146102a35780636352211e146102cc57806370a08231146103095761014b565b806301ffc9a71461015057806306fdde031461018d578063081812fc146101b8578063095ea7b3146101f557806323b872dd1461021e5761014b565b3661014b57005b600080fd5b34801561015c57600080fd5b506101776004803603810190610172919061208f565b610565565b60405161018491906120d7565b60405180910390f35b34801561019957600080fd5b506101a2610577565b6040516101af9190612182565b60405180910390f35b3480156101c457600080fd5b506101df60048036038101906101da91906121da565b610609565b6040516101ec9190612248565b60405180910390f35b34801561020157600080fd5b5061021c6004803603810190610217919061228f565b610625565b005b34801561022a57600080fd5b50610245600480360381019061024091906122cf565b61063b565b005b34801561025357600080fd5b5061025c61073d565b005b610278600480360381019061027391906121da565b610795565b005b34801561028657600080fd5b506102a1600480360381019061029c91906122cf565b6108d5565b005b3480156102af57600080fd5b506102ca60048036038101906102c591906121da565b6108f5565b005b3480156102d857600080fd5b506102f360048036038101906102ee91906121da565b61090c565b6040516103009190612248565b60405180910390f35b34801561031557600080fd5b50610330600480360381019061032b9190612322565b61091e565b60405161033d919061235e565b60405180910390f35b34801561035257600080fd5b5061035b6109d8565b005b34801561036957600080fd5b506103726109ec565b60405161037f9190612248565b60405180910390f35b34801561039457600080fd5b5061039d610a16565b6040516103aa9190612182565b60405180910390f35b3480156103bf57600080fd5b506103da60048036038101906103d591906123a5565b610aa8565b005b3480156103e857600080fd5b5061040360048036038101906103fe91906121da565b610abe565b005b34801561041157600080fd5b5061042c6004803603810190610427919061251a565b610bba565b005b34801561043a57600080fd5b50610455600480360381019061045091906121da565b610bd7565b6040516104629190612182565b60405180910390f35b34801561047757600080fd5b50610492600480360381019061048d919061228f565b610be9565b60405161049f919061235e565b60405180910390f35b3480156104b457600080fd5b506104bd610c0e565b005b3480156104cb57600080fd5b506104e660048036038101906104e1919061259d565b610c42565b6040516104f391906120d7565b60405180910390f35b34801561050857600080fd5b50610523600480360381019061051e91906121da565b610cd6565b60405161053394939291906125dd565b60405180910390f35b34801561054857600080fd5b50610563600480360381019061055e9190612322565b610d9b565b005b600061057082610e21565b9050919050565b60606000805461058690612658565b80601f01602080910402602001604051908101604052809291908181526020018280546105b290612658565b80156105ff5780601f106105d4576101008083540402835291602001916105ff565b820191906000526020600020905b8154815290600101906020018083116105e257829003601f168201915b5050505050905090565b600061061482610e82565b5061061e82610f0a565b9050919050565b6106378282610632610f47565b610f4f565b5050565b600073ffffffffffffffffffffffffffffffffffffffff168273ffffffffffffffffffffffffffffffffffffffff16036106ad5760006040517f64a0ae920000000000000000000000000000000000000000000000000000000081526004016106a49190612248565b60405180910390fd5b60006106c183836106bc610f47565b610f61565b90508373ffffffffffffffffffffffffffffffffffffffff168173ffffffffffffffffffffffffffffffffffffffff1614610737578382826040517f64283d7b00000000000000000000000000000000000000000000000000000000815260040161072e93929190612689565b60405180910390fd5b50505050565b61074561117b565b61074d6109ec565b73ffffffffffffffffffffffffffffffffffffffff166108fc479081150290604051600060405180830381858888f19350505050158015610792573d6000803e3d6000fd5b50565b6000600f600083815260200190815260200160002060010154116107ee576040517f08c379a00000000000000000000000000000000000000000000000000000000081526004016107e59061270c565b60405180910390fd5b600954600c5410610834576040517f08c379a000000000000000000000000000000000000000000000000000000000815260040161082b90612778565b60405180910390fd5b61084033600c54611202565b601060003373ffffffffffffffffffffffffffffffffffffffff1673ffffffffffffffffffffffffffffffffffffffff168152602001908152602001600020600082815260200190815260200160002060008154809291906108a1906127c7565b9190505550600f600082815260200190815260200160002060010160008154809291906108cd9061280f565b919050555050565b6108f083838360405180602001604052806000815250610bba565b505050565b610908600082610903610f47565b610f61565b5050565b600061091782610e82565b9050919050565b60008073ffffffffffffffffffffffffffffffffffffffff168273ffffffffffffffffffffffffffffffffffffffff16036109915760006040517f89c62b640000000000000000000000000000000000000000000000000000000081526004016109889190612248565b60405180910390fd5b600360008373ffffffffffffffffffffffffffffffffffffffff1673ffffffffffffffffffffffffffffffffffffffff168152602001908152602001600020549050919050565b6109e061117b565b6109ea6000611220565b565b6000600760009054906101000a900473ffffffffffffffffffffffffffffffffffffffff16905090565b606060018054610a2590612658565b80601f0160208091040260200160405190810160405280929190818152602001828054610a5190612658565b8015610a9e5780601f10610a7357610100808354040283529160200191610a9e565b820191906000526020600020905b815481529060010190602001808311610a8157829003601f168201915b5050505050905090565b610aba610ab3610f47565b83836112e6565b5050565b6000601060003373ffffffffffffffffffffffffffffffffffffffff1673ffffffffffffffffffffffffffffffffffffffff16815260200190815260200160002060008381526020019081526020016000205411610b51576040517f08c379a0000000000000000000000000000000000000000000000000000000008152600401610b48906128aa565b60405180910390fd5b601060003373ffffffffffffffffffffffffffffffffffffffff1673ffffffffffffffffffffffffffffffffffffffff16815260200190815260200160002060008281526020019081526020016000206000815480929190610bb29061280f565b919050555050565b610bc584848461063b565b610bd184848484611455565b50505050565b6060610be28261160c565b9050919050565b6010602052816000526040600020602052806000526040600020600091509150505481565b610c1661117b565b600b60009054906101000a900460ff1615600b60006101000a81548160ff021916908315150217905550565b6000600560008473ffffffffffffffffffffffffffffffffffffffff1673ffffffffffffffffffffffffffffffffffffffff16815260200190815260200160002060008373ffffffffffffffffffffffffffffffffffffffff1673ffffffffffffffffffffffffffffffffffffffff16815260200190815260200160002060009054906101000a900460ff16905092915050565b600f602052806000526040600020600091509050806000018054610cf990612658565b80601f0160208091040260200160405190810160405280929190818152602001828054610d2590612658565b8015610d725780601f10610d4757610100808354040283529160200191610d72565b820191906000526020600020905b815481529060010190602001808311610d5557829003601f168201915b5050505050908060010154908060020154908060030160009054906101000a900460ff16905084565b610da361117b565b600073ffffffffffffffffffffffffffffffffffffffff168173ffffffffffffffffffffffffffffffffffffffff1603610e155760006040517f1e4fbdf7000000000000000000000000000000000000000000000000000000008152600401610e0c9190612248565b60405180910390fd5b610e1e81611220565b50565b6000634906490660e01b7bffffffffffffffffffffffffffffffffffffffffffffffffffffffff1916827bffffffffffffffffffffffffffffffffffffffffffffffffffffffff19161480610e7b5750610e7a8261171f565b5b9050919050565b600080610e8e83611801565b9050600073ffffffffffffffffffffffffffffffffffffffff168173ffffffffffffffffffffffffffffffffffffffff1603610f0157826040517f7e273289000000000000000000000000000000000000000000000000000000008152600401610ef8919061235e565b60405180910390fd5b80915050919050565b60006004600083815260200190815260200160002060009054906101000a900473ffffffffffffffffffffffffffffffffffffffff169050919050565b600033905090565b610f5c838383600161183e565b505050565b600080610f6d84611801565b9050600073ffffffffffffffffffffffffffffffffffffffff168373ffffffffffffffffffffffffffffffffffffffff1614610faf57610fae818486611a03565b5b600073ffffffffffffffffffffffffffffffffffffffff168173ffffffffffffffffffffffffffffffffffffffff161461104057610ff160008560008061183e565b6001600360008373ffffffffffffffffffffffffffffffffffffffff1673ffffffffffffffffffffffffffffffffffffffff168152602001908152602001600020600082825403925050819055505b600073ffffffffffffffffffffffffffffffffffffffff168573ffffffffffffffffffffffffffffffffffffffff16146110c3576001600360008773ffffffffffffffffffffffffffffffffffffffff1673ffffffffffffffffffffffffffffffffffffffff168152602001908152602001600020600082825401925050819055505b846002600086815260200190815260200160002060006101000a81548173ffffffffffffffffffffffffffffffffffffffff021916908373ffffffffffffffffffffffffffffffffffffffff160217905550838573ffffffffffffffffffffffffffffffffffffffff168273ffffffffffffffffffffffffffffffffffffffff167fddf252ad1be2c89b69c2b068fc378daa952ba7f163c4a11628f55a4df523b3ef60405160405180910390a4809150509392505050565b611183610f47565b73ffffffffffffffffffffffffffffffffffffffff166111a16109ec565b73ffffffffffffffffffffffffffffffffffffffff1614611200576111c4610f47565b6040517f118cdaa70000000000000000000000000000000000000000000000000000000081526004016111f79190612248565b60405180910390fd5b565b61121c828260405180602001604052806000815250611ac7565b5050565b6000600760009054906101000a900473ffffffffffffffffffffffffffffffffffffffff16905081600760006101000a81548173ffffffffffffffffffffffffffffffffffffffff021916908373ffffffffffffffffffffffffffffffffffffffff1602179055508173ffffffffffffffffffffffffffffffffffffffff168173ffffffffffffffffffffffffffffffffffffffff167f8be0079c531659141344cd1fd0a4f28419497f9722a3daafe3b4186f6b6457e060405160405180910390a35050565b600073ffffffffffffffffffffffffffffffffffffffff168273ffffffffffffffffffffffffffffffffffffffff160361135757816040517f5b08ba1800000000000000000000000000000000000000000000000000000000815260040161134e9190612248565b60405180910390fd5b80600560008573ffffffffffffffffffffffffffffffffffffffff1673ffffffffffffffffffffffffffffffffffffffff16815260200190815260200160002060008473ffffffffffffffffffffffffffffffffffffffff1673ffffffffffffffffffffffffffffffffffffffff16815260200190815260200160002060006101000a81548160ff0219169083151502179055508173ffffffffffffffffffffffffffffffffffffffff168373ffffffffffffffffffffffffffffffffffffffff167f17307eab39ab6107e8899845ad3d59bd9653f200f220920489ca2b5937696c318360405161144891906120d7565b60405180910390a3505050565b60008373ffffffffffffffffffffffffffffffffffffffff163b1115611606578273ffffffffffffffffffffffffffffffffffffffff1663150b7a02611499610f47565b8685856040518563ffffffff1660e01b81526004016114bb949392919061291f565b6020604051808303816000875af19250505080156114f757506040513d601f19601f820116820180604052508101906114f49190612980565b60015b61157b573d8060008114611527576040519150601f19603f3d011682016040523d82523d6000602084013e61152c565b606091505b50600081510361157357836040517f64a0ae9200000000000000000000000000000000000000000000000000000000815260040161156a9190612248565b60405180910390fd5b805181602001fd5b63150b7a0260e01b7bffffffffffffffffffffffffffffffffffffffffffffffffffffffff1916817bffffffffffffffffffffffffffffffffffffffffffffffffffffffff19161461160457836040517f64a0ae920000000000000000000000000000000000000000000000000000000081526004016115fb9190612248565b60405180910390fd5b505b50505050565b606061161782610e82565b50600060066000848152602001908152602001600020805461163890612658565b80601f016020809104026020016040519081016040528092919081815260200182805461166490612658565b80156116b15780601f10611686576101008083540402835291602001916116b1565b820191906000526020600020905b81548152906001019060200180831161169457829003601f168201915b5050505050905060006116c2611ae3565b905060008151036116d757819250505061171a565b60008251111561170c5780826040516020016116f49291906129e9565b6040516020818303038152906040529250505061171a565b61171584611b75565b925050505b919050565b60007f80ac58cd000000000000000000000000000000000000000000000000000000007bffffffffffffffffffffffffffffffffffffffffffffffffffffffff1916827bffffffffffffffffffffffffffffffffffffffffffffffffffffffff191614806117ea57507f5b5e139f000000000000000000000000000000000000000000000000000000007bffffffffffffffffffffffffffffffffffffffffffffffffffffffff1916827bffffffffffffffffffffffffffffffffffffffffffffffffffffffff1916145b806117fa57506117f982611bde565b5b9050919050565b60006002600083815260200190815260200160002060009054906101000a900473ffffffffffffffffffffffffffffffffffffffff169050919050565b80806118775750600073ffffffffffffffffffffffffffffffffffffffff168273ffffffffffffffffffffffffffffffffffffffff1614155b156119ab57600061188784610e82565b9050600073ffffffffffffffffffffffffffffffffffffffff168373ffffffffffffffffffffffffffffffffffffffff16141580156118f257508273ffffffffffffffffffffffffffffffffffffffff168173ffffffffffffffffffffffffffffffffffffffff1614155b801561190557506119038184610c42565b155b1561194757826040517fa9fbf51f00000000000000000000000000000000000000000000000000000000815260040161193e9190612248565b60405180910390fd5b81156119a957838573ffffffffffffffffffffffffffffffffffffffff168273ffffffffffffffffffffffffffffffffffffffff167f8c5be1e5ebec7d5bd14f71427d1e84f3dd0314c0f7b2291e5b200ac8c7c3b92560405160405180910390a45b505b836004600085815260200190815260200160002060006101000a81548173ffffffffffffffffffffffffffffffffffffffff021916908373ffffffffffffffffffffffffffffffffffffffff16021790555050505050565b611a0e838383611c48565b611ac257600073ffffffffffffffffffffffffffffffffffffffff168373ffffffffffffffffffffffffffffffffffffffff1603611a8357806040517f7e273289000000000000000000000000000000000000000000000000000000008152600401611a7a919061235e565b60405180910390fd5b81816040517f177e802f000000000000000000000000000000000000000000000000000000008152600401611ab9929190612a0d565b60405180910390fd5b505050565b611ad18383611d09565b611ade6000848484611455565b505050565b6060600d8054611af290612658565b80601f0160208091040260200160405190810160405280929190818152602001828054611b1e90612658565b8015611b6b5780601f10611b4057610100808354040283529160200191611b6b565b820191906000526020600020905b815481529060010190602001808311611b4e57829003601f168201915b5050505050905090565b6060611b8082610e82565b506000611b8b611ae3565b90506000815111611bab5760405180602001604052806000815250611bd6565b80611bb584611e02565b604051602001611bc69291906129e9565b6040516020818303038152906040525b915050919050565b60007f01ffc9a7000000000000000000000000000000000000000000000000000000007bffffffffffffffffffffffffffffffffffffffffffffffffffffffff1916827bffffffffffffffffffffffffffffffffffffffffffffffffffffffff1916149050919050565b60008073ffffffffffffffffffffffffffffffffffffffff168373ffffffffffffffffffffffffffffffffffffffff1614158015611d0057508273ffffffffffffffffffffffffffffffffffffffff168473ffffffffffffffffffffffffffffffffffffffff161480611cc15750611cc08484610c42565b5b80611cff57508273ffffffffffffffffffffffffffffffffffffffff16611ce783610f0a565b73ffffffffffffffffffffffffffffffffffffffff16145b5b90509392505050565b600073ffffffffffffffffffffffffffffffffffffffff168273ffffffffffffffffffffffffffffffffffffffff1603611d7b5760006040517f64a0ae92000000000000000000000000000000000000000000000000000000008152600401611d729190612248565b60405180910390fd5b6000611d8983836000610f61565b9050600073ffffffffffffffffffffffffffffffffffffffff168173ffffffffffffffffffffffffffffffffffffffff1614611dfd5760006040517f73c6ac6e000000000000000000000000000000000000000000000000000000008152600401611df49190612248565b60405180910390fd5b505050565b606060006001611e1184611ed0565b01905060008167ffffffffffffffff811115611e3057611e2f6123ef565b5b6040519080825280601f01601f191660200182016040528015611e625781602001600182028036833780820191505090505b509050600082602001820190505b600115611ec5578080600190039150507f3031323334353637383961626364656600000000000000000000000000000000600a86061a8153600a8581611eb957611eb8612a36565b5b04945060008503611e70575b819350505050919050565b600080600090507a184f03e93ff9f4daa797ed6e38ed64bf6a1f0100000000000000008310611f2e577a184f03e93ff9f4daa797ed6e38ed64bf6a1f0100000000000000008381611f2457611f23612a36565b5b0492506040810190505b6d04ee2d6d415b85acef81000000008310611f6b576d04ee2d6d415b85acef81000000008381611f6157611f60612a36565b5b0492506020810190505b662386f26fc100008310611f9a57662386f26fc100008381611f9057611f8f612a36565b5b0492506010810190505b6305f5e1008310611fc3576305f5e1008381611fb957611fb8612a36565b5b0492506008810190505b6127108310611fe8576127108381611fde57611fdd612a36565b5b0492506004810190505b6064831061200b576064838161200157612000612a36565b5b0492506002810190505b600a831061201a576001810190505b80915050919050565b6000604051905090565b600080fd5b600080fd5b60007fffffffff0000000000000000000000000000000000000000000000000000000082169050919050565b61206c81612037565b811461207757600080fd5b50565b60008135905061208981612063565b92915050565b6000602082840312156120a5576120a461202d565b5b60006120b38482850161207a565b91505092915050565b60008115159050919050565b6120d1816120bc565b82525050565b60006020820190506120ec60008301846120c8565b92915050565b600081519050919050565b600082825260208201905092915050565b60005b8381101561212c578082015181840152602081019050612111565b60008484015250505050565b6000601f19601f8301169050919050565b6000612154826120f2565b61215e81856120fd565b935061216e81856020860161210e565b61217781612138565b840191505092915050565b6000602082019050818103600083015261219c8184612149565b905092915050565b6000819050919050565b6121b7816121a4565b81146121c257600080fd5b50565b6000813590506121d4816121ae565b92915050565b6000602082840312156121f0576121ef61202d565b5b60006121fe848285016121c5565b91505092915050565b600073ffffffffffffffffffffffffffffffffffffffff82169050919050565b600061223282612207565b9050919050565b61224281612227565b82525050565b600060208201905061225d6000830184612239565b92915050565b61226c81612227565b811461227757600080fd5b50565b60008135905061228981612263565b92915050565b600080604083850312156122a6576122a561202d565b5b60006122b48582860161227a565b92505060206122c5858286016121c5565b9150509250929050565b6000806000606084860312156122e8576122e761202d565b5b60006122f68682870161227a565b93505060206123078682870161227a565b9250506040612318868287016121c5565b9150509250925092565b6000602082840312156123385761233761202d565b5b60006123468482850161227a565b91505092915050565b612358816121a4565b82525050565b6000602082019050612373600083018461234f565b92915050565b612382816120bc565b811461238d57600080fd5b50565b60008135905061239f81612379565b92915050565b600080604083850312156123bc576123bb61202d565b5b60006123ca8582860161227a565b92505060206123db85828601612390565b9150509250929050565b600080fd5b600080fd5b7f4e487b7100000000000000000000000000000000000000000000000000000000600052604160045260246000fd5b61242782612138565b810181811067ffffffffffffffff82111715612446576124456123ef565b5b80604052505050565b6000612459612023565b9050612465828261241e565b919050565b600067ffffffffffffffff821115612485576124846123ef565b5b61248e82612138565b9050602081019050919050565b82818337600083830152505050565b60006124bd6124b88461246a565b61244f565b9050828152602081018484840111156124d9576124d86123ea565b5b6124e484828561249b565b509392505050565b600082601f830112612501576125006123e5565b5b81356125118482602086016124aa565b91505092915050565b600080600080608085870312156125345761253361202d565b5b60006125428782880161227a565b94505060206125538782880161227a565b9350506040612564878288016121c5565b925050606085013567ffffffffffffffff81111561258557612584612032565b5b612591878288016124ec565b91505092959194509250565b600080604083850312156125b4576125b361202d565b5b60006125c28582860161227a565b92505060206125d38582860161227a565b9150509250929050565b600060808201905081810360008301526125f78187612149565b9050612606602083018661234f565b612613604083018561234f565b61262060608301846120c8565b95945050505050565b7f4e487b7100000000000000000000000000000000000000000000000000000000600052602260045260246000fd5b6000600282049050600182168061267057607f821691505b60208210810361268357612682612629565b5b50919050565b600060608201905061269e6000830186612239565b6126ab602083018561234f565b6126b86040830184612239565b949350505050565b7f696e76616c6964207469636b6574000000000000000000000000000000000000600082015250565b60006126f6600e836120fd565b9150612701826126c0565b602082019050919050565b60006020820190508181036000830152612725816126e9565b9050919050565b7f7469636b65747320616c726561647920736f6c64206f75740000000000000000600082015250565b60006127626018836120fd565b915061276d8261272c565b602082019050919050565b6000602082019050818103600083015261279181612755565b9050919050565b7f4e487b7100000000000000000000000000000000000000000000000000000000600052601160045260246000fd5b60006127d2826121a4565b91507fffffffffffffffffffffffffffffffffffffffffffffffffffffffffffffffff820361280457612803612798565b5b600182019050919050565b600061281a826121a4565b91506000820361282d5761282c612798565b5b600182039050919050565b7f5573657220646f6573206e6f74206f776e2074686973207469636b657420747960008201527f7065000000000000000000000000000000000000000000000000000000000000602082015250565b60006128946022836120fd565b915061289f82612838565b604082019050919050565b600060208201905081810360008301526128c381612887565b9050919050565b600081519050919050565b600082825260208201905092915050565b60006128f1826128ca565b6128fb81856128d5565b935061290b81856020860161210e565b61291481612138565b840191505092915050565b60006080820190506129346000830187612239565b6129416020830186612239565b61294e604083018561234f565b818103606083015261296081846128e6565b905095945050505050565b60008151905061297a81612063565b92915050565b6000602082840312156129965761299561202d565b5b60006129a48482850161296b565b91505092915050565b600081905092915050565b60006129c3826120f2565b6129cd81856129ad565b93506129dd81856020860161210e565b80840191505092915050565b60006129f582856129b8565b9150612a0182846129b8565b91508190509392505050565b6000604082019050612a226000830185612239565b612a2f602083018461234f565b9392505050565b7f4e487b7100000000000000000000000000000000000000000000000000000000600052601260045260246000fdfea264697066735822122067fc62ad894362a31d52302108c0381c71a0fc330c2c45290486e4cce329bde664736f6c63430008180033",
  "linkReferences": {},
  "deployedLinkReferences": {}
}